:100000000C94AB010C94C8010C94C8010C94C80169
:100010000C94C8010C94C8010C94C8010C94C8013C
:100020000C94C8010C94C8010C94C8010C94C8012C
:100030000C94C8010C94C8010C940F040C94C801D2
:100040000C94C8010C94C8010C94C8010C94C8010C
:100050000C94C8010C94C8010C94C8010C94C801FC
:100060000C94C8010C94C801BC5F9C60A4618462BC
:10007000B6639664B0659F66B5678968A969FFFF36
:100080000000000000000000002F0000000007003A
:10009000070000147F147F1400242A7F2A120062B4
:1000A0006408132300364955225000000503000060
:1000B00000001C224100000041221C000014083EE8
:1000C00008140008083E0808000000A060000008AE
:1000D0000808080800006060000000201008040202
:1000E000003E5149453E0000427F400000426151C0
:1000F0004946002141454B31001814127F1000275A
:1001000045454539003C4A4949300001710905031C
:1001100000364949493600064949291E000036364D
:1001200000000000563600000008142241000014B0
:10013000141414140000412214080002015109068D
:1001400000324959513E007C1211127C007F49490E
:100150004936003E41414122007F4141221C007F3F
:1001600049494941007F09090901003E4149497A4D
:10017000007F0808087F0000417F410000204041C7
:100180003F01007F08142241007F40404040007F33
:10019000020C027F007F0408107F003E4141413E77
:1001A000007F09090906003E4151215E007F0919BF
:1001B00029460046494949310001017F0101003FBC
:1001C0004040403F001F2040201F003F4038403F3C
:1001D00000631408146300070870080700615149A0
:1001E000454300007F41410000552A552A55000033
:1001F00041417F00000402010204004040404040B1
:10020000000001020400002054545478007F484448
:10021000443800384444442000384444487F00387F
:100220005454541800087E0901020018A4A4A47CA8
:10023000007F080404780000447D40000040808472
:100240007D00007F102844000000417F4000007CBA
:1002500004180478007C08040478003844444438C6
:1002600000FC242424180018242418FC007C080412
:10027000040800485454542000043F444020003CEB
:100280004040207C001C2040201C003C4030403C72
:10029000004428102844001CA0A0A07C0044645402
:1002A0004C4400000877410000000063000000009B
:1002B00041770800000804080804003A4040207A0A
:1002C000003D4040403D002154545479007D1211BE
:1002D000127D003944444439003D4242423D00020F
:1002E00005020000007E01495573007C1010081CB7
:1002F000003048204830005C6202625CAE2000B0F2
:10030000C8001040813FA1A6A83FA4D300D5F0D9D2
:1003100022DA12DB208D1453756E646179000000BF
:100320004D6F6E6461790000005475657364617986
:1003300000005765646E6573646179546875727303
:1003400064617900467269646179000000536174E8
:1003500075726461790011241FBECFEFD8E0DEBF53
:10036000CDBF13E0A0E0B1E0ECE5F6E202C00590FD
:100370000D92A637B107D9F724E0A6E7B3E001C094
:100380001D92A634B207E1F70E94CB070C942C1300
:100390000C9400000F931F93CF93DF93082FEB0172
:1003A000142F0E94AC0382EA0E94D203802F0E9485
:1003B000D203112329F089910E94D2031150F9CF61
:1003C000DF91CF911F910F910C94BF03EF92FF9299
:1003D0001F93CF93DF9300D0CDB7DEB7F82E142F45
:1003E00069837A830E94AC0382EA0E94D2038F2D34
:1003F0000E94D2030E94BF030E94AC0383EA0E94C2
:10040000D2036981E62E7A81F72E160F812F8E197D
:10041000823038F081E00E94E703F70181937F0189
:10042000F5CF80E00E94E703F70180830F900F90E3
:10043000DF91CF911F91FF90EF900C94BF036AE082
:100440000E94B812292F30E1839FC0011124822B12
:1004500008950F931F93CF93DF93CDB7DEB7279700
:100460000FB6F894DEBF0FBECDBF8C01FC018081BA
:100470000E941F028F778983F80181810E941F02E9
:100480008F778A83F80182810E941F028F738B838A
:10049000F80183810E941F028F738C83F80184818D
:1004A00087708D8385810E941F02282F2F712E83D4
:1004B000F80186819781803DF7E09F0710F420685E
:1004C0002E8368EE73E00E94C4120E941F028F8385
:1004D00047E0BE016F5F7F4F82E00E94CA0127960E
:1004E0000FB6F894DEBF0FBECDBFDF91CF911F9145
:1004F0000F9108950F931F93CF93DF93CDB7DEB77E
:1005000027970FB6F894DEBF0FBECDBF8C0147E032
:10051000BE016F5F7F4F82E00E94E6014981942F08
:100520009695969596959E70892F880F880F890FBE
:10053000942F9F70890FF80180832A81922F9695BE
:10054000969596959E70892F880F880F890F2F702A
:10055000820F81832B81922F969596959695967012
:10056000892F880F880F890F2F70820F82832C812B
:10057000922F9695969596959670892F880F880F4D
:10058000890F2F70820F83838D81877084835E81B2
:1005900054FB992790F9990F892F880F880F890F9D
:1005A000952F9F70890F85838F81282F22952F701B
:1005B0008F7090E0FAE02F9F800D911D11249C0117
:1005C0002459384F57FF04C0F8013783268305C0EC
:1005D0008053984FF8019783868347FF05C0809129
:1005E0009A03816080939A0327960FB6F894DEBF32
:1005F0000FBECDBFDF91CF911F910F910895CF9383
:10060000DF931F92CDB7DEB7843030F080919A032C
:10061000826080939A0309C08068898341E0BE01AB
:100620006F5F7F4F8DE00E94CA010F90DF91CF91E5
:100630000895CF92DF92EF920F938093AF03609370
:10064000B0034093B1032093B2030093B303E0924D
:10065000B403D092B603C092B5038FEA93E00F9132
:10066000EF90DF90CF900C94290290917603943014
:1006700014F0109276039091760397FF03C093E0F5
:100680009093760390917603913079F034F4911140
:1006900014C05E9A9BB1977C0FC0923051F093309A
:1006A00061F45B9A9BB19F7807C05D9A9BB1977A82
:1006B00003C05C9A9BB197799BB99091760388238C
:1006C00011F0915001C09F5F90937603089580913F
:1006D000B90381112CC02091BC033091BD038091DE
:1006E000C2039091C30328173907F4F481E00E94F4
:1006F00035038091BC039091BD0301969093BD0397
:100700008093BC032091C2033091C30382179307E7
:1007100059F41092BD031092BC031092C3031092BF
:10072000C2038BB187788BB981E08093B9030895B8
:100730008AB188678AB9089583E890E09093C303EB
:100740008093C20308951092B90088E48093B800A2
:1007500084E08093BC00089584EA8093BC0080E428
:1007600091E02091BC0027FD09C001970097C9F7CF
:100770008091C50381608093C5030895089584E93D
:100780008093BC0080E491E02091BC0024FD09C06E
:1007900001970097C9F78091C50382608093C503D4
:1007A000089508958093BB0084E88093BC0080E4A2
:1007B00091E02091BC0027FD09C001970097C9F77F
:1007C0008091C50384608093C5030895089520E453
:1007D000829FC001112484688093BC0080E491E072
:1007E0002091BC0027FD0AC001970097C9F78091AE
:1007F000C50388608093C50380E008958091BB00A5
:100800000895CF93DF931F92CDB7DEB789830E94FF
:10081000AC0389810F90DF91CF910C94D2031F928A
:100820000F920FB60F9211248F938091BF038823EC
:1008300029F08091BF0381508093BF038091B90359
:10084000882329F08091B90381508093B903809166
:10085000BE03882329F08091BE0381508093BE039C
:100860008091BB03882321F08091BB03815004C099
:1008700081E08093C40384E68093BB038F910F9043
:100880000FBE0F901F90189584B5826084BD85B50A
:10089000856085BD87B58B6987BDEEE6F0E0808118
:1008A000826080837894229887B1887F87B9259A5F
:1008B00088B1876088B92A9A2D9A0895EF92FF929D
:1008C0000F931F9330917803332311F0361360C0D8
:1008D000FC013081362391E080917703332311F0BE
:1008E00090E006C0811104C09093770385E011C0A9
:1008F000882309F44DC0992379F08130B9F48091AF
:10090000BF03811145C082E0809377036093780331
:1009100083E08093BF033CC09EEF980F923090F528
:100920000115110589F1F80109952EC0823079F47D
:100930008091BF0381112CC083E080937703411520
:10094000510511F446E950E04093BF0321C08330C4
:1009500041F48091BF0381111BC084E08093770331
:1009600017C08430A9F48091BF03811111C0209376
:10097000BF03E114F10461F0F7011F910F91FF90A3
:10098000EF900994843021F4109277031092780349
:100990001F910F91FF90EF900895CF92DF92FF92F9
:1009A0000F931F93CF93DF931F92CDB7DEB7182F0E
:1009B000062F88E799830E94010480E00E94D203F9
:1009C000F12EC12E9981D92E8C2D8F19801730F4DC
:1009D000F60181916F010E94D203F6CF0F90DF9153
:1009E000CF911F910F91FF90DF90CF900C94BF0398
:1009F000CF92DF92FF920F931F93CF93DF931F92BB
:100A0000CDB7DEB7F82E8B0188E799830E940104E9
:100A100080E40E94D203CF2C9981D92E0C0D1D1D8C
:100A2000C016D10631F0F60181916F010E94D20308
:100A3000F7CF0F90DF91CF911F910F91FF90DF9033
:100A4000CF900C94BF03CF93DF9300D000D01F92C0
:100A5000CDB7DEB7813800F56830F0F480937903C4
:100A600060937A036055698391E29A8392E0980FCC
:100A70009F709B8390E00296807F992724E0959554
:100A800087952A95E1F7805F8C838FE78D8365E0FA
:100A9000CE0101960E94CD040F900F900F900F9001
:100AA0000F90DF91CF910895982F990F980F892F6C
:100AB000880F0C94230560E080E00C942305FF92DE
:100AC0000F931F93CF93DF93CDB7DEB7C058D109F3
:100AD0000FB6F894DEBF0FBECDBF8E010F5F1F4F64
:100AE00080E8F80111928A95E9F7F12C6F2D80E0EA
:100AF0000E94230560E870E0C8010E94F804F394A6
:100B0000F8E0FF12F3CF0E945B05C058DF4F0FB62D
:100B1000F894DEBF0FBECDBFDF91CF911F910F9133
:100B2000FF900895CF93DF93CDB7DEB76C970FB6E4
:100B3000F894DEBF0FBECDBF282FECEFF2E0DE0150
:100B40001196CD0134913D93319633E0E731F307AF
:100B5000C9F72C8F6CE10E94CD040E945F056C9652
:100B60000FB6F894DEBF0FBECDBFDF91CF910895D1
:100B7000CF93DF931F92CDB7DEB7813011F086EAB5
:100B800001C087EA898361E0CE0101960E94CD040D
:100B90000F90DF91CF910895CF93DF931F92CDB740
:100BA000DEB7813011F08FEA01C08EEA898361E0FF
:100BB000CE0101960E94CD040F90DF91CF91089550
:100BC000CF93DF9300D0CDB7DEB791E899838A83C6
:100BD00062E0CE0101960E94CD040F900F90DF914C
:100BE000CF910895AF92BF92CF92DF92EF92FF9292
:100BF0000F931F93CF93DF93CDB7DEB76D970FB6EB
:100C0000F894DEBF0FBECDBF893001F1B8F4883053
:100C100009F04EC0809179039091000160917A03B0
:100C2000891B0E94540580E20E94F205809179039D
:100C30009091000160917A03891B25C08A3051F19F
:100C40008D30B1F560917A0380E02FC090917903E7
:100C500080910001682F70E0AB01440F551F440FD5
:100C6000551F490F511D1CEF16039001179F300DA2
:100C700011242B5E3F4F4217530740F4880F880F13
:100C800060917A03890F0E94540532C160917A0302
:100C90008EE70BC080917A03873008F029C16091FC
:100CA0000001680F80917903EECF0E94230520C1D7
:100CB000209179032A3708F01BC1803208F418C14B
:100CC0008052E9E6F0E0E4918E1708F130E0482F19
:100CD00050E0632F70E0CB01880F991F87599F4F19
:100CE000FC01A491FB01EE0FFF1FAF3F09F400C10F
:100CF000E859FF4FE491F0E0B097E417F50729F4C5
:100D0000FC0184918F3F19F4F3C03F5FE2CF9091D3
:100D10000001923009F0CEC030E0245F3F4F21380F
:100D2000310508F0E5C0F6E08F9FC0011124DE0117
:100D30001D9660E070E080589F4FEE24E394F12C04
:100D400011961C921E92FC01E60FF71FE49101E040
:100D500010E020E030E0F0E0AF01022E02C0559537
:100D600047950A94E2F740FF1AC0A701002E02C07F
:100D7000440F551F0A94E2F7CD90DC9011974C294F
:100D80005D296901CC0CDD1C570102C0AA0CBB1CFB
:100D9000CA94E2F74A295B2911965C934E932F5F20
:100DA0003F4F0E5F1F4F28303105B1F66F5F7F4F09
:100DB00012966630710521F6FE013D9680E090E0C6
:100DC0009C01220F331F40813296A1E0B0E0AC0FAE
:100DD000BD1FA20FB31F4C93A2E0B0E0AC0FBD1F2C
:100DE000A20FB31F4C9301968630910549F76CE032
:100DF00070E0CE0101960E94F80480917A038F542E
:100E0000898F81E28A8F8091790392E0980F9F7099
:100E10009B8F90E00296807F992754E09595879567
:100E20005A95E1F7805F8C8F8FE78D8F65E0CE015B
:100E300049960E94CD04FE013D9680E090E09C0121
:100E4000220F331F41813296A1E0B0E0AC0FBD1FED
:100E5000A20FB31F4C93A2E0B0E0AC0FBD1FA20FD6
:100E6000B31F4C9301968630910549F76CE070E012
:100E7000CE0101960E94F80480917A038055898FF3
:100E8000809179039EE0980F9F709B8F90E00E9663
:100E9000807F992734E0969587953A95E1F7805FB2
:100EA0008C8F65E0CE0149960E94CD048091790334
:100EB000845F1CC0DE01119626E0829FA0011124F0
:100EC00020E030E0CD0140585F4FFA01E20FF31F00
:100ED000E491ED932F5F3F4F26303105B1F766E087
:100EE00070E00E94F804809179038A5F809379030F
:100EF0006D960FB6F894DEBF0FBECDBFDF91CF91D8
:100F00001F910F91FF90EF90DF90CF90BF90AF9027
:100F10000895809300010895CF93DF93EC018991A8
:100F2000882319F00E94F205FACFDF91CF9108953E
:100F3000CF93DF93FC018491EF012196882321F068
:100F40000E94F205FE01F7CFDF91CF910895CF9374
:100F5000DF93CDB7DEB761970FB6F894DEBF0FBE53
:100F6000CDBF4AE050E0BE016F5F7F4F0E94EC12A0
:100F70000E948C0761960FB6F894DEBF0FBECDBFFE
:100F8000DF91CF910895682F80E00E94230582E0D1
:100F900091E00C948C070E9498030E94A0120E947A
:100FA000A3038FEA0E9492050E944404E8ECF3E058
:100FB0008FEF8083379694E0EF33F907D1F736EE61
:100FC000C32E37E0D32E46E0E42E01E024E14FE0CB
:100FD0006EE180E00E9419030E945F051092B30049
:100FE00086E2E82E88E0F82E870120E040E050E01D
:100FF00061E086E290E00E945E049EE2E92E98E0C5
:10100000F92E870120E040E050E062E086E290E0C7
:101010000E945E0426E3E22E28E0F22E870120E003
:1010200040E050E064E086E290E00E945E040E94AE
:10103000740A0E9467030E9457111A9904C081E044
:101040008093BA03CDCF1092BA03CACF81E08093C8
:10105000C00385B190E2892785B9089582E0809325
:10106000C00385B190E2892785B9089583E0809314
:10107000C00385B190E2892785B908952FEF280F25
:1010800090E027FD0AC0E22FFF27E7FDF095E55C21
:10109000FB4F3081930F2150F4CFE82FF0E0E55C57
:1010A000FB4FA081A90FB0E057E0292F332727FD80
:1010B00030952A173B0794F4529FF001539FF00D8F
:1010C0001124E853FC4F2081821306C02181621352
:1010D00003C02281421721F09F5FE7CF80E008958F
:1010E00081E00895CF92DF92EF92FF920F931F93CA
:1010F000CF93DF9380918C03882321F0813009F412
:101100006FC07AC00E945F05F12CC12CE12C97E0E2
:10111000D92E8091C703E816F0F587E08F1518F4F3
:10112000F12C8AE0C82E6F2D8C2D0E9454050E2DB7
:1011300010E0D09EF001D19EF00D1124E853FC4F39
:1011400081818A3020F48AE092E00E948C07D09E50
:10115000E001D19ED00D1124C853DC4F898190E06D
:101160000E94A70784ED91E00E948C078A818A3053
:1011700020F48AE092E00E948C07D09EF001D19E7C
:10118000F00D1124E853FC4F828190E00E94A707E4
:10119000F394E394BECF66E08AE00E945405809108
:1011A000C70390E00E94A70767E08AE00E94540509
:1011B000E0914304F0914404818190E00E94A707EC
:1011C00084ED91E00E948C07E0914304F091440487
:1011D000828190E00E94A70781E080938C030CC07D
:1011E0008091C003823041F40E945F0510928C030D
:1011F0001092C00381E001C080E0DF91CF911F9188
:101200000F91FF90EF90DF90CF900895CF93DF93F1
:10121000E091A9038FEF8E0FC0E087FD0AC0A82FD1
:10122000BB27A7FDB095A55CBB4F9C91C90F815012
:10123000F4CFBC2FF0E0E55CFB4F40814C0F2091D8
:10124000A7038091A60390E03CE3239F800D911DAE
:1012500011249093AE038093AD036C2F50E077E0A0
:10126000262F332727FD309524173507BCF4729FAE
:10127000F001739FF00D1124E853FC4FA1812281EE
:1012800030E0DCE3AD9F200D311D11243483238336
:10129000281B390B368325836F5FE2CFA1E0AC0FAB
:1012A000D7E02A2F332727FD309524173507E4F49C
:1012B000D29FF001D39FF00D1124E853FC4F2581FC
:1012C00036811216130674F42817390759F0DC9F7B
:1012D000F0011124E853FC4F65817681261737070A
:1012E0000CF4CA2FAF5FDDCF2C2F30E0CB130FC033
:1012F00047E0429FF001439FF00D1124E853FC4F5B
:101300004581568157FD0CC04817590749F047E001
:10131000429FC001439F900D112488539C4F02C0EF
:1013200080E090E0DF91CF910895CF934091C70383
:101330008091A7032091A60330E09CE3899F200DB4
:10134000311D11243093AE032093AD0360E050E0D3
:1013500077E0862F992787FD909584179507BCF431
:10136000789FF001799FF00D1124E853FC4FA18183
:10137000828190E0BCE3AB9F800D911D112494838A
:101380008383821B930B968385836F5FE2CFB0E0EC
:10139000A1E0C7E08B2F90E06A2F772767FD70955B
:1013A000641775077CF4C89FF001C99FF00D1124E4
:1013B000E853FC4F85819681181619060CF0BA2F58
:1013C000AF5FE8CF47E0489FF001499FF00D11243F
:1013D000E853FC4F85819681181619062CF4821764
:1013E000930711F0CF0102C088EC93E0CF910895EC
:1013F00080918B038130C1F018F0823061F147C0D9
:1014000010928A030E945F0582E00E94890764E0CF
:1014100081E00E94540588E191E00E948C0781E000
:101420000E94890781E014C09091BA0391110AC00B
:101430009091BE0391112BC08093BE0380E00E9467
:10144000350325C0913019F580E580938A0382E049
:1014500080938B031CC080918A03882379F080914C
:10146000BE03811114C081E08093BE030E94350346
:1014700080918A03815080938A0309C08BB1877859
:101480008BB910928B030E945F0581E0089580E084
:10149000089580918903813061F018F08230E9F07D
:1014A00008950E949509909344048093430481E039
:1014B00011C0E0914304F091440421819091A7036D
:1014C000291311C022819091A60329130CC0809387
:1014D000380482E080938903089580913804811153
:1014E00002C01092890308958091C4038823A1F05B
:1014F00085EA93E00E947A028091A60390913904D4
:10150000981731F091E0909342048093390402C01F
:10151000109242041092C40380914204813031F44D
:1015200080914504813011F40C94490A08951F9369
:10153000CF93DF93C0919903C1112EC00E945F0524
:1015400060E081E00E94540582E291E00E948C07F5
:1015500061E080E00E94540585E391E00E948C07E1
:1015600063E080E00E9454058BE491E00E948C07C8
:1015700065E083E00E94540581E691E00E948C07BB
:1015800066E084E00E94540581E791E00E948C07A8
:1015900081E080939803AAC0C13009F065C0D09162
:1015A000C003D23039F1D330D1F1D13009F040C489
:1015B00080919803813009F43BC463E080E00E948D
:1015C00054058BE491E00E948C0785E00E94C307DC
:1015D00086E00E94C30765E083E00E94540581E62F
:1015E00091E00E948C0766E084E00E94540581E748
:1015F00091E033C00E945F0580919803813019F417
:101600001092C60304C0833011F4C093C60382E075
:10161000809399031092C0031092980309C480919B
:101620009803833009F404C465E081E00E94540506
:101630008FE791E00E948C0766E082E00E945405EB
:1016400083E991E00E948C0783E00E94C30763E076
:1016500081E00E94540586EA91E00E948C07109276
:10166000C003D0939803E4C3C23009F042C060E0E5
:1016700082E00E9454058AEB91E00E948C078091E1
:10168000C603811109C061E083E00E9454058BEA22
:1016900091E00E948C071EC08130E1F461E085E09A
:1016A0000E9454058BEC91E00E948C0763E086E079
:1016B0000E94540586ED91E00E948C0767E081E06E
:1016C0000E9454058DED91E00E948C0780E190E02E
:1016D0000E94A70782E00E94890765E089E00E94D6
:1016E00054058AE092E00E948C0783E0809399037E
:1016F0009FC3C33009F03AC18091C003823031F1F9
:10170000833009F41FC1813009F092C3809197039F
:10171000882319F081508093970365E089E00E9447
:1017200054058091970390E00E94A707809197034A
:1017300090E001966AE070E00E94D812892B09F0CF
:1017400053C386E191E00E948C074EC38091C6038B
:1017500081114AC080919703811135C081E0809347
:1017600096030E945F0582E00E94890760E085E0A1
:101770000E94540580EE91E00E948C0781E00E9457
:10178000890763E080E00E94540586EE91E00E94A4
:101790008C0764E083E00E9454058BEF91E00E9487
:1017A0008C0766E083E00E9454058CE092E00E9482
:1017B0008C0767E088E00E9454058CE192E00E946B
:1017C0008C0786E00AC08093C70380933B040E9485
:1017D0005F0581E00E94890784E08093990310925D
:1017E000C0031092970324C3813009F021C3909164
:1017F0009703E0919503F0E0E55CFB4F90838091C7
:10180000C703890F8093C70381E00E9489078091F5
:10181000C70367E08A3010F481E001C080E00E94D5
:1018200054058091C70390E00E94A70782E00E94C0
:1018300089071092C00310929703909195038091AD
:10184000C703963018F4803108F452C081113DC0AE
:1018500081E0809396030E945F0582E00E948907E1
:1018600060E085E00E94540580EE91E00E948C07C4
:1018700081E00E94890763E080E00E94540586EEC3
:1018800091E00E948C0764E083E00E9454058BEF96
:1018900091E00E948C0766E083E00E9454058CE092
:1018A00092E00E948C0767E088E00E9454058CE17A
:1018B00092E00E948C0786E0809399031092C00307
:1018C0001092970310929503B3C281E00E9489079A
:1018D00080E021E0280FE82FF0E0E55CFB4F9081ED
:1018E000911102C0822FF5CF8093950384E0FECE44
:1018F00065E089E00E94540582E292E00E948C0734
:1019000081E00E94890783E00E94C30763E086E0CC
:101910000E9454052091950330E02F5F3F4F49E02E
:10192000429FC001439F900D1124895E9C4F0E94ED
:10193000980782E00E948907809195038F5F8093CA
:10194000950376C220919703203158F43091C70354
:10195000822F90E0830F911D40971CF42F5F2093FE
:10196000970365E089E00E9454058AC0C43009F0FD
:1019700052C00E945F0560E080E00E94540585E24D
:1019800092E00E948C078091C603813009F561E0E6
:1019900086E00E9454058091950321E0280FE82FEE
:1019A000F0E0E55CFB4F9081911102C0822FF5CFF2
:1019B0008093950361E086E00E9454058091950331
:1019C00029E0829FC0011124895E9C4F0E949807E4
:1019D00062E083E00E9454058BE392E00E948C0752
:1019E0008091940390E001960E94A70763E085E050
:1019F0000E94540589E492E00E948C0782E00E94D4
:101A0000890765E085E00E94540587E592E00E9421
:101A10008C0785E06BCEC53009F0D3C18091C0033F
:101A20008230A1F1833009F4A2C1813009F000C2F3
:101A30008091970381508093970380919303811144
:101A40000AC065E085E00E945405809197038F3FAE
:101A500079F487E10BC0813059F465E08BE00E9496
:101A60005405809197038F3F19F48BE3809397037C
:101A7000809197038A3020F48AE092E00E948C07DC
:101A80008091970390E00E94A707AEC18091C603A2
:101A90008111A4C080919303811108C080919703A4
:101AA0008093920381E08093930394C0813009F086
:101AB00091C0C0919203D09197038D2F90E02CE3B9
:101AC000C29F800D911D11249093910380939003E8
:101AD00020918E0330918F038217930708F4A7C0DB
:101AE00090938F0380938E034D2F6C2F80E00E9484
:101AF0003E08882399F182E0809396030E945F0557
:101B000082E00E94890760E085E00E94540580EE33
:101B100091E00E948C0781E00E94890763E082E0E7
:101B20000E9454058BE992E00E948C0764E088E0F3
:101B30000E9454058DEA92E00E948C0766E081E0E5
:101B40000E94540586E892E00E948C07109293034D
:101B5000109297031092C00386E0C8CD8091940341
:101B600097E0899FF0011124E853FC4FD283C18391
:101B700010828F5F80939403109293039091C70318
:101B8000891310C088E080939903109297031092F4
:101B9000C00381E00E9489070E945F0588EC809362
:101BA000B90318C065E085E00E94540587E592E01E
:101BB0000E948C0781E00E94890762E080E10E9418
:101BC00054058091940390E001960E94A70782E05B
:101BD0000E948907109297031092C0039091C60348
:101BE000913009F025C180919303811107C0809144
:101BF00097038093920390939303B6C0813009F0CA
:101C0000B3C010919203D09197038D2F90E02CE3F5
:101C1000129F800D911D1124909391038093900346
:101C200020918E0330918F038217930710F582E085
:101C3000809396030E945F0582E00E94890760E01E
:101C400085E00E94540580EE91E00E948C0781E0BF
:101C50000E94890763E080E00E9454058DE592E0D0
:101C60000E948C0764E080E00E9454058FE692E0B9
:101C700063CF90938F0380938E03C09195034D2F74
:101C8000612F8C2F0E943E08811135CFE091940383
:101C900087E0E89FF0011124E853FC4F1183D283C1
:101CA000C08380918D03282F30E02F5F3F4FEC2FB2
:101CB000F0E0E55CFB4F408150E02417350711F55B
:101CC000CF5FC093950310929103109290031092EE
:101CD0008F0310928E0310928D0381E00E9489077A
:101CE00061E086E00E9454058091950329E0829F7F
:101CF000C0011124895E9C4F0E94980782E00E94D7
:101D0000890703C08F5F80938D03809194038F5F59
:101D100080939403109293039091C70389130CC08E
:101D200088E08093990381E00E9489070E945F0503
:101D300088EC8093B90318C065E085E00E945405E3
:101D400087E592E00E948C0781E00E94890762E0AB
:101D500080E10E9454058091940390E001960E94D6
:101D6000A70782E00E948907109297033DC08091E7
:101D700097038F5F809397031092C0039091930312
:101D8000911107C0883111F41092970365E085E046
:101D900008C0913041F48C3311F41092970365E040
:101DA0008BE00E945405809197038A3020F48AE0EA
:101DB00092E00E948C078091970390E00E94A70711
:101DC00037C0C630A1F48091C003823089F590916C
:101DD0009603913019F0923019F484E080939903BE
:101DE0000E945F05109296031092C00321C0C83074
:101DF000F9F462E082E00E94540583EB92E00E94D5
:101E00008C0764E084E00E94540582EC92E00E941A
:101E10008C0781E0809345040E94490A8091B903B0
:101E2000811106C0109299030E945F0581E001C0F4
:101E300080E0DF91CF911F910895809188038230D7
:101E400001F128F4882361F08130B1F0A6C084301C
:101E500009F498C008F460C0853009F499C09DC0A9
:101E60000E949509009711F488EC93E09093870302
:101E70008093860381E089C00E94F809811184C0A3
:101E80008CC060E080E00E9454058FEC92E00E94DC
:101E90008C078091010190E00E94A70761E081E03A
:101EA0000E94540583EE92E00E948C0782E00E941B
:101EB000890764E084E00E945405E0918603F09174
:101EC000870381818A3020F48AE092E00E948C07A7
:101ED000E0918603F0918703818190E00E94A7073B
:101EE00084ED91E00E948C07E0918603F0918703D6
:101EF00082818A3020F48AE092E00E948C07E0918F
:101F00008603F0918703828190E00E94A70781E019
:101F10000E94890783E039C08091C003823021F597
:101F2000809186039091870307969093870380930F
:101F30008603209101012F5F209301012091C703A7
:101F400047E0249F9001112428533C4F82179307A8
:101F500031F488EC93E0909387038093860384E0C8
:101F6000809388031092C003809101018131A9F40C
:101F70000E945F0510928703109286031092010160
:101F800085E003C00E949C0382E08093880305C023
:101F90000E94F80991E0811101C090E0892F089515
:101FA0008091C003823079F0833081F18130E1F596
:101FB00080918503882311F0815002C080918403B1
:101FC000809385032FC01092C003809183038230D9
:101FD00031F48091850380939F0384E00FC08430A7
:101FE00031F48091850380939D0383E007C08330A3
:101FF00039F48091850380939C0385E0809382036C
:1020000081E080938303109285030EC08091850345
:1020100090918403891710F48F5FD2CF891302C087
:10202000109285031092C00380918303823009F4DB
:1020300074C028F4882321F18130B9F1C8C08430FC
:1020400009F48DC008F495C0853009F0C0C08BE953
:1020500093E00E9429028AE0EBE9F3E0A5EAB3E00D
:1020600001900D928A95E1F70E949509909344049E
:1020700080934304109283031092820381E00895B9
:1020800010929B0310929C0310929D0310929E034A
:1020900010929F0386E08093A00386EE97E09093D2
:1020A000A2038093A10382E035C082E00E948907E9
:1020B00060E084E00E94540580919F0329E0829FA4
:1020C000C0011124895E9C4F0E94980763E085E05F
:1020D0000E94540580919D038A3020F48AE092E0AA
:1020E0000E948C0780919D0390E00E94A70784EDD9
:1020F00091E00E948C0780919C038A3020F48AE052
:1021000092E00E948C0780919C0390E00E94A707B8
:1021100080918203809383035AC086E08093840376
:102120008091B903811153C060E084E00E9454059E
:1021300082E00E94890780918103813059F4809167
:10214000850329E0829FC0011124895E9C4F0E9473
:1021500098072EC0811138C00E94C30732C087E1A2
:10216000809384038091B903811131C063E085E0DD
:1021700009C08BE3809384038091B903811127C048
:1021800063E08BE00E94540582E00E948907809101
:102190008103813081F4809185038A3020F48AE0C4
:1021A00092E00E948C078091850390E00E94A7072F
:1021B0001092810309C0811107C085E191E00E945E
:1021C0008C0781E08093810389E18093B90380E0EB
:1021D0000895809180038230B1F158F4882389F00A
:1021E000813009F062C080917F038F5F80937F030D
:1021F00031C0843009F440C078F1853009F44BC017
:1022000054C00E945F0562E084E00E94540585EF9F
:1022100092E00E948C0763E084E00E94540583E012
:1022200093E00E948C0764E084E00E94540584E1FE
:1022300093E00E948C0780917F03882311F082E055
:1022400027C081E025C080917F038F5F80937F034B
:102250000E949C0383E01CC08091C003823029F55A
:102260000E94AE128AE00E94B2121092C00384E66D
:102270008093B90384E00CC08091B903811115C02B
:102280000E94B2120E945F058AE08093B90385E044
:10229000809380030AC08091B903811106C00E9417
:1022A000B0121092800381E0089580E00895CF93EA
:1022B00080917E0381113EC082E00E94890760E028
:1022C00084E00E9454058091A90329E0829FC00107
:1022D0001124895E9C4F0E94980763E085E00E946C
:1022E00054058091A7038A3020F48AE092E00E948E
:1022F0008C078091A70390E00E94A70784ED91E0EE
:102300000E948C078091A6038A3020F48AE092E034
:102310000E948C078091A60390E00E94A70781E0AD
:102320000E94890765E080E00E94540581E0809367
:102330007E0304C1813009F0DFC080914204813006
:10234000B1F582E00E94890760E084E00E945405B4
:102350008091A90329E0829FC0011124895E9C4FCE
:102360000E94980763E085E00E9454058091A703CE
:102370008A3020F48AE092E00E948C078091A703C3
:1023800090E00E94A70784ED91E00E948C07809165
:10239000A6038A3020F48AE092E00E948C078091A4
:1023A000A60390E00E94A70781E00E948907C091E0
:1023B0003804C130C9F485E080937D038091B9036E
:1023C000811112C080917C03813029F40E94B805EC
:1023D00010927C0306C0811104C00E94B805C0930E
:1023E0007C0382E38093B9039091C00380917D03C5
:1023F000923041F0933041F1913069F5882349F1F1
:10240000815025C0811103C090937E0322C081308A
:1024100041F483E080937E031092C0030E945F0525
:102420001AC0823011F484E003C0833021F485E0C7
:1024300080937E030EC0853071F486E080937E0326
:1024400080E00E94B80505C0843018F48F5F809347
:102450007D031092C00380917D0390917B039817B8
:1024600009F46CC0823051F178F48823E9F08130AE
:1024700009F064C086E00E94C30766E082E00E9423
:10248000540588E393E023C0843091F138F185301E
:1024900009F054C086E00E94C30766E082E00E9413
:1024A000540586E693E013C086E00E94C30766E009
:1024B00081E00E94540585E293E009C086E00E9415
:1024C000C30766E086E00E94540589E493E00E9419
:1024D0008C0780917D0380937B0330C086E00E944F
:1024E000C30766E082E00E94540584E593E0EFCFE5
:1024F00086E00E94C307EDCF823019F40E94970A4C
:102500000EC0833019F40E94720809C0843019F497
:102510000E941D0F04C0853039F40E94D00F813015
:1025200069F410927E030AC0863041F40E94E910DB
:10253000813011F410927E0310923804CF910895E7
:10254000E0EBF0E08081806880838081836080831D
:10255000E1EBF0E08081876080830895239A0895FD
:1025600023980895843208F083E28093B30008959D
:10257000991B79E004C0991F961708F0961B881FD5
:102580007A95C9F780950895AA1BBB1B51E107C036
:10259000AA1FBB1FA617B70710F0A61BB70B881FF3
:1025A000991F5A95A9F780959095BC01CD01089582
:1025B00097FB072E16F4009407D077FD09D00E94F0
:1025C000C41207FC05D03EF4909581959F4F089565
:1025D000709561957F4F08954532510520F4423042
:1025E00010F00C94F712FB011082CB010895BB2769
:1025F0004A3031F4992322F4BDE2909581959F4FA2
:102600000C940313BB27FB015527AA27880F991F9A
:10261000AA1FA41710F0A41B83955051B9F7A05D11
:10262000AA3308F0A95DA193009779F7B111B1938E
:102630001192CB010C941C13DC01FC01672F7191EA
:102640007723E1F7329704C07C916D937083629198
:0C265000AE17BF07C8F30895F894FFCF41
:10265C0001012020202020202020202020202020AC
:10266C002020202020202000486F6D696E672E2EC0
:10267C002E0053656C65637420646F73616765200D
:10268C0074797065002D2D2D2D2D2D2D2D2D2D2D8D
:10269C002D2D2D2D2D2D2D2D2D2D003E53616D65A8
:1026AC0020646F7365732065766572796461793C1B
:1026BC0000446966666572656E7420646F73657339
:1026CC00006576657279207765656B646179003E8B
:1026DC0020446966666572656E7420646F736573F9
:1026EC00203C003E206576657279207765656B64C9
:1026FC006179203C200053616D6520646F736573B4
:10270C002065766572796461790047697665206128
:10271C00206E756D626572206F6600646F736573F1
:10272C00206F6E203A0053756E64617900302F0073
:10273C004552524F52004E756D626572206F662085
:10274C00646F736573206D757374006265206269C4
:10275C0067676572207468616E203000456E746521
:10276C007220646966666572656E740076616C755C
:10277C0065003020002D2D2D2D2D446566696E656C
:10278C0020646F7365732D2D2D2D00446F736520A0
:10279C006E756D6265723A2000486F7572203A2032
:1027AC004D696E7574650030303A3030004E657886
:1027BC007420646F7365206861766520746F0062A5
:1027CC0065206C61746572207468616E207072652E
:1027DC0076696F757300456E746572206469666600
:1027EC006572656E742074696D6500546869732038
:1027FC00646F736520616C726561647900657869DA
:10280C00737400446F73657320646566696E6965E3
:10281C0064007375636365737366756C6C790049DA
:10282C006E66696C6C20636F6D706172746D656E31
:10283C0074200077697468206D65646963696E65DE
:10284C0020666F7200506C656173652C2070726528
:10285C007373006D6964646C6520627574746F6E5B
:10286C0020746F006F70656E20636F6D7061727491
:10287C006D656E74003E3E20446566696E6520642D
:10288C006F736573203C3C003E3E20566965772093
:10289C00646F736573203C3C003E3E2046696C6C53
:1028AC00203C3C003E3E204368616E6765207469A5
:1028BC006D65203C3C003E3E2054414B4520444F2E
:0628CC005345203C3C00D6
:00000001FF
